{
  "abi": [
    {
      "inputs": [],
      "stateMutability": "nonpayable",
      "type": "constructor"
    },
    {
      "anonymous": false,
      "inputs": [
        {
          "indexed": true,
          "internalType": "address",
          "name": "owner",
          "type": "address"
        },
        {
          "indexed": true,
          "internalType": "address",
          "name": "approved",
          "type": "address"
        },
        {
          "indexed": true,
          "internalType": "uint256",
          "name": "tokenId",
          "type": "uint256"
        }
      ],
      "name": "Approval",
      "type": "event"
    },
    {
      "anonymous": false,
      "inputs": [
        {
          "indexed": true,
          "internalType": "address",
          "name": "owner",
          "type": "address"
        },
        {
          "indexed": true,
          "internalType": "address",
          "name": "operator",
          "type": "address"
        },
        {
          "indexed": false,
          "internalType": "bool",
          "name": "approved",
          "type": "bool"
        }
      ],
      "name": "ApprovalForAll",
      "type": "event"
    },
    {
      "anonymous": false,
      "inputs": [
        {
          "indexed": true,
          "internalType": "address",
          "name": "from",
          "type": "address"
        },
        {
          "indexed": true,
          "internalType": "address",
          "name": "to",
          "type": "address"
        },
        {
          "indexed": true,
          "internalType": "uint256",
          "name": "tokenId",
          "type": "uint256"
        }
      ],
      "name": "Transfer",
      "type": "event"
    },
    {
      "inputs": [
        {
          "internalType": "address",
          "name": "to",
          "type": "address"
        },
        {
          "internalType": "uint256",
          "name": "tokenId",
          "type": "uint256"
        }
      ],
      "name": "approve",
      "outputs": [],
      "stateMutability": "nonpayable",
      "type": "function"
    },
    {
      "inputs": [
        {
          "internalType": "address",
          "name": "owner",
          "type": "address"
        }
      ],
      "name": "balanceOf",
      "outputs": [
        {
          "internalType": "uint256",
          "name": "",
          "type": "uint256"
        }
      ],
      "stateMutability": "view",
      "type": "function"
    },
    {
      "inputs": [
        {
          "internalType": "uint256",
          "name": "tokenId",
          "type": "uint256"
        }
      ],
      "name": "getApproved",
      "outputs": [
        {
          "internalType": "address",
          "name": "",
          "type": "address"
        }
      ],
      "stateMutability": "view",
      "type": "function"
    },
    {
      "inputs": [],
      "name": "getTokenCounter",
      "outputs": [
        {
          "internalType": "uint256",
          "name": "",
          "type": "uint256"
        }
      ],
      "stateMutability": "view",
      "type": "function"
    },
    {
      "inputs": [
        {
          "internalType": "address",
          "name": "owner",
          "type": "address"
        },
        {
          "internalType": "address",
          "name": "operator",
          "type": "address"
        }
      ],
      "name": "isApprovedForAll",
      "outputs": [
        {
          "internalType": "bool",
          "name": "",
          "type": "bool"
        }
      ],
      "stateMutability": "view",
      "type": "function"
    },
    {
      "inputs": [],
      "name": "mintNFT",
      "outputs": [
        {
          "internalType": "uint256",
          "name": "",
          "type": "uint256"
        }
      ],
      "stateMutability": "nonpayable",
      "type": "function"
    },
    {
      "inputs": [],
      "name": "name",
      "outputs": [
        {
          "internalType": "string",
          "name": "",
          "type": "string"
        }
      ],
      "stateMutability": "view",
      "type": "function"
    },
    {
      "inputs": [
        {
          "internalType": "uint256",
          "name": "tokenId",
          "type": "uint256"
        }
      ],
      "name": "ownerOf",
      "outputs": [
        {
          "internalType": "address",
          "name": "",
          "type": "address"
        }
      ],
      "stateMutability": "view",
      "type": "function"
    },
    {
      "inputs": [
        {
          "internalType": "address",
          "name": "from",
          "type": "address"
        },
        {
          "internalType": "address",
          "name": "to",
          "type": "address"
        },
        {
          "internalType": "uint256",
          "name": "tokenId",
          "type": "uint256"
        }
      ],
      "name": "safeTransferFrom",
      "outputs": [],
      "stateMutability": "nonpayable",
      "type": "function"
    },
    {
      "inputs": [
        {
          "internalType": "address",
          "name": "from",
          "type": "address"
        },
        {
          "internalType": "address",
          "name": "to",
          "type": "address"
        },
        {
          "internalType": "uint256",
          "name": "tokenId",
          "type": "uint256"
        },
        {
          "internalType": "bytes",
          "name": "data",
          "type": "bytes"
        }
      ],
      "name": "safeTransferFrom",
      "outputs": [],
      "stateMutability": "nonpayable",
      "type": "function"
    },
    {
      "inputs": [
        {
          "internalType": "address",
          "name": "operator",
          "type": "address"
        },
        {
          "internalType": "bool",
          "name": "approved",
          "type": "bool"
        }
      ],
      "name": "setApprovalForAll",
      "outputs": [],
      "stateMutability": "nonpayable",
      "type": "function"
    },
    {
      "inputs": [
        {
          "internalType": "bytes4",
          "name": "interfaceId",
          "type": "bytes4"
        }
      ],
      "name": "supportsInterface",
      "outputs": [
        {
          "internalType": "bool",
          "name": "",
          "type": "bool"
        }
      ],
      "stateMutability": "view",
      "type": "function"
    },
    {
      "inputs": [],
      "name": "symbol",
      "outputs": [
        {
          "internalType": "string",
          "name": "",
          "type": "string"
        }
      ],
      "stateMutability": "view",
      "type": "function"
    },
    {
      "inputs": [
        {
          "internalType": "uint256",
          "name": "tokenId",
          "type": "uint256"
        }
      ],
      "name": "tokenURI",
      "outputs": [
        {
          "internalType": "string",
          "name": "",
          "type": "string"
        }
      ],
      "stateMutability": "view",
      "type": "function"
    },
    {
      "inputs": [
        {
          "internalType": "address",
          "name": "from",
          "type": "address"
        },
        {
          "internalType": "address",
          "name": "to",
          "type": "address"
        },
        {
          "internalType": "uint256",
          "name": "tokenId",
          "type": "uint256"
        }
      ],
      "name": "transferFrom",
      "outputs": [],
      "stateMutability": "nonpayable",
      "type": "function"
    }
  ],
  "bytecode": {
    "object": "0x60806040523480156200001157600080fd5b506040518060400160405280600581526020016470616e646160d81b8152506040518060400160405280600b81526020016a4769616e742050616e646160a81b815250816000908162000065919062000127565b50600162000074828262000127565b5050600060065550620001f3565b634e487b7160e01b600052604160045260246000fd5b600181811c90821680620000ad57607f821691505b602082108103620000ce57634e487b7160e01b600052602260045260246000fd5b50919050565b601f8211156200012257600081815260208120601f850160051c81016020861015620000fd5750805b601f850160051c820191505b818110156200011e5782815560010162000109565b5050505b505050565b81516001600160401b0381111562000143576200014362000082565b6200015b8162000154845462000098565b84620000d4565b602080601f8311600181146200019357600084156200017a5750858301515b600019600386901b1c1916600185901b1785556200011e565b600085815260208120601f198616915b82811015620001c457888601518255948401946001909101908401620001a3565b5085821015620001e35787850151600019600388901b60f8161c191681555b5050505050600190811b01905550565b6113f380620002036000396000f3fe608060405234801561001057600080fd5b50600436106100f55760003560e01c80636352211e11610097578063a22cb46511610066578063a22cb465146101e9578063b88d4fde146101fc578063c87b56dd1461020f578063e985e9c51461022257600080fd5b80636352211e146101b35780636e02007d146101c657806370a08231146101ce57806395d89b41146101e157600080fd5b8063095ea7b3116100d3578063095ea7b31461016257806314f710fe1461017757806323b872dd1461018d57806342842e0e146101a057600080fd5b806301ffc9a7146100fa57806306fdde0314610122578063081812fc14610137575b600080fd5b61010d610108366004610f43565b610235565b60405190151581526020015b60405180910390f35b61012a610287565b6040516101199190610fb0565b61014a610145366004610fc3565b610319565b6040516001600160a01b039091168152602001610119565b610175610170366004610ff8565b610340565b005b61017f61045a565b604051908152602001610119565b61017561019b366004611022565b610488565b6101756101ae366004611022565b6104b9565b61014a6101c1366004610fc3565b6104d4565b60065461017f565b61017f6101dc36600461105e565b610534565b61012a6105ba565b6101756101f7366004611079565b6105c9565b61017561020a3660046110cb565b6105d8565b61012a61021d366004610fc3565b610610565b61010d6102303660046111a7565b610684565b60006001600160e01b031982166380ac58cd60e01b148061026657506001600160e01b03198216635b5e139f60e01b145b8061028157506301ffc9a760e01b6001600160e01b03198316145b92915050565b606060008054610296906111da565b80601f01602080910402602001604051908101604052809291908181526020018280546102c2906111da565b801561030f5780601f106102e45761010080835404028352916020019161030f565b820191906000526020600020905b8154815290600101906020018083116102f257829003601f168201915b5050505050905090565b6000610324826106b2565b506000908152600460205260409020546001600160a01b031690565b600061034b826104d4565b9050806001600160a01b0316836001600160a01b0316036103bd5760405162461bcd60e51b815260206004820152602160248201527f4552433732313a20617070726f76616c20746f2063757272656e74206f776e656044820152603960f91b60648201526084015b60405180910390fd5b336001600160a01b03821614806103d957506103d98133610684565b61044b5760405162461bcd60e51b815260206004820152603d60248201527f4552433732313a20617070726f76652063616c6c6572206973206e6f7420746f60448201527f6b656e206f776e6572206f7220617070726f76656420666f7220616c6c00000060648201526084016103b4565b6104558383610714565b505050565b600061046833600654610782565b60016006600082825461047b919061122a565b9091555050600654919050565b610492338261079c565b6104ae5760405162461bcd60e51b81526004016103b49061123d565b6104558383836107fb565b610455838383604051806020016040528060008152506105d8565b6000818152600260205260408120546001600160a01b0316806102815760405162461bcd60e51b8152602060048201526018602482015277115490cdcc8c4e881a5b9d985b1a59081d1bdad95b88125160421b60448201526064016103b4565b60006001600160a01b03821661059e5760405162461bcd60e51b815260206004820152602960248201527f4552433732313a2061646472657373207a65726f206973206e6f7420612076616044820152683634b21037bbb732b960b91b60648201526084016103b4565b506001600160a01b031660009081526003602052604090205490565b606060018054610296906111da565b6105d433838361096c565b5050565b6105e2338361079c565b6105fe5760405162461bcd60e51b81526004016103b49061123d565b61060a84848484610a3a565b50505050565b606061061b826106b2565b600061063260408051602081019091526000815290565b90506000815111610652576040518060200160405280600081525061067d565b8061065c84610a6d565b60405160200161066d92919061128a565b6040516020818303038152906040525b9392505050565b6001600160a01b03918216600090815260056020908152604080832093909416825291909152205460ff1690565b6000818152600260205260409020546001600160a01b03166107115760405162461bcd60e51b8152602060048201526018602482015277115490cdcc8c4e881a5b9d985b1a59081d1bdad95b88125160421b60448201526064016103b4565b50565b600081815260046020526040902080546001600160a01b0319166001600160a01b0384169081179091558190610749826104d4565b6001600160a01b03167f8c5be1e5ebec7d5bd14f71427d1e84f3dd0314c0f7b2291e5b200ac8c7c3b92560405160405180910390a45050565b6105d4828260405180602001604052806000815250610b00565b6000806107a8836104d4565b9050806001600160a01b0316846001600160a01b031614806107cf57506107cf8185610684565b806107f35750836001600160a01b03166107e884610319565b6001600160a01b0316145b949350505050565b826001600160a01b031661080e826104d4565b6001600160a01b0316146108345760405162461bcd60e51b81526004016103b4906112b9565b6001600160a01b0382166108965760405162461bcd60e51b8152602060048201526024808201527f4552433732313a207472616e7366657220746f20746865207a65726f206164646044820152637265737360e01b60648201526084016103b4565b6108a38383836001610b33565b826001600160a01b03166108b6826104d4565b6001600160a01b0316146108dc5760405162461bcd60e51b81526004016103b4906112b9565b600081815260046020908152604080832080546001600160a01b03199081169091556001600160a01b0387811680865260038552838620805460001901905590871680865283862080546001019055868652600290945282852080549092168417909155905184937fddf252ad1be2c89b69c2b068fc378daa952ba7f163c4a11628f55a4df523b3ef91a4505050565b816001600160a01b0316836001600160a01b0316036109cd5760405162461bcd60e51b815260206004820152601960248201527f4552433732313a20617070726f766520746f2063616c6c65720000000000000060448201526064016103b4565b6001600160a01b03838116600081815260056020908152604080832094871680845294825291829020805460ff191686151590811790915591519182527f17307eab39ab6107e8899845ad3d59bd9653f200f220920489ca2b5937696c31910160405180910390a3505050565b610a458484846107fb565b610a5184848484610bbb565b61060a5760405162461bcd60e51b81526004016103b4906112fe565b60606000610a7a83610cbc565b600101905060008167ffffffffffffffff811115610a9a57610a9a6110b5565b6040519080825280601f01601f191660200182016040528015610ac4576020820181803683370190505b5090508181016020015b600019016f181899199a1a9b1b9c1cb0b131b232b360811b600a86061a8153600a8504945084610ace57509392505050565b610b0a8383610d94565b610b176000848484610bbb565b6104555760405162461bcd60e51b81526004016103b4906112fe565b600181111561060a576001600160a01b03841615610b79576001600160a01b03841660009081526003602052604081208054839290610b73908490611350565b90915550505b6001600160a01b0383161561060a576001600160a01b03831660009081526003602052604081208054839290610bb090849061122a565b909155505050505050565b60006001600160a01b0384163b15610cb157604051630a85bd0160e11b81526001600160a01b0385169063150b7a0290610bff903390899088908890600401611363565b6020604051808303816000875af1925050508015610c3a575060408051601f3d908101601f19168201909252610c37918101906113a0565b60015b610c97573d808015610c68576040519150601f19603f3d011682016040523d82523d6000602084013e610c6d565b606091505b508051600003610c8f5760405162461bcd60e51b81526004016103b4906112fe565b805181602001fd5b6001600160e01b031916630a85bd0160e11b1490506107f3565b506001949350505050565b60008072184f03e93ff9f4daa797ed6e38ed64bf6a1f0160401b8310610cfb5772184f03e93ff9f4daa797ed6e38ed64bf6a1f0160401b830492506040015b6d04ee2d6d415b85acef81000000008310610d27576d04ee2d6d415b85acef8100000000830492506020015b662386f26fc100008310610d4557662386f26fc10000830492506010015b6305f5e1008310610d5d576305f5e100830492506008015b6127108310610d7157612710830492506004015b60648310610d83576064830492506002015b600a83106102815760010192915050565b6001600160a01b038216610dea5760405162461bcd60e51b815260206004820181905260248201527f4552433732313a206d696e7420746f20746865207a65726f206164647265737360448201526064016103b4565b6000818152600260205260409020546001600160a01b031615610e4f5760405162461bcd60e51b815260206004820152601c60248201527f4552433732313a20746f6b656e20616c7265616479206d696e7465640000000060448201526064016103b4565b610e5d600083836001610b33565b6000818152600260205260409020546001600160a01b031615610ec25760405162461bcd60e51b815260206004820152601c60248201527f4552433732313a20746f6b656e20616c7265616479206d696e7465640000000060448201526064016103b4565b6001600160a01b038216600081815260036020908152604080832080546001019055848352600290915280822080546001600160a01b0319168417905551839291907fddf252ad1be2c89b69c2b068fc378daa952ba7f163c4a11628f55a4df523b3ef908290a45050565b6001600160e01b03198116811461071157600080fd5b600060208284031215610f5557600080fd5b813561067d81610f2d565b60005b83811015610f7b578181015183820152602001610f63565b50506000910152565b60008151808452610f9c816020860160208601610f60565b601f01601f19169290920160200192915050565b60208152600061067d6020830184610f84565b600060208284031215610fd557600080fd5b5035919050565b80356001600160a01b0381168114610ff357600080fd5b919050565b6000806040838503121561100b57600080fd5b61101483610fdc565b946020939093013593505050565b60008060006060848603121561103757600080fd5b61104084610fdc565b925061104e60208501610fdc565b9150604084013590509250925092565b60006020828403121561107057600080fd5b61067d82610fdc565b6000806040838503121561108c57600080fd5b61109583610fdc565b9150602083013580151581146110aa57600080fd5b809150509250929050565b634e487b7160e01b600052604160045260246000fd5b600080600080608085870312156110e157600080fd5b6110ea85610fdc565b93506110f860208601610fdc565b925060408501359150606085013567ffffffffffffffff8082111561111c57600080fd5b818701915087601f83011261113057600080fd5b813581811115611142576111426110b5565b604051601f8201601f19908116603f0116810190838211818310171561116a5761116a6110b5565b816040528281528a602084870101111561118357600080fd5b82602086016020830137600060208483010152809550505050505092959194509250565b600080604083850312156111ba57600080fd5b6111c383610fdc565b91506111d160208401610fdc565b90509250929050565b600181811c908216806111ee57607f821691505b60208210810361120e57634e487b7160e01b600052602260045260246000fd5b50919050565b634e487b7160e01b600052601160045260246000fd5b8082018082111561028157610281611214565b6020808252602d908201527f4552433732313a2063616c6c6572206973206e6f7420746f6b656e206f776e6560408201526c1c881bdc88185c1c1c9bdd9959609a1b606082015260800190565b6000835161129c818460208801610f60565b8351908301906112b0818360208801610f60565b01949350505050565b60208082526025908201527f4552433732313a207472616e736665722066726f6d20696e636f72726563742060408201526437bbb732b960d91b606082015260800190565b60208082526032908201527f4552433732313a207472616e7366657220746f206e6f6e20455243373231526560408201527131b2b4bb32b91034b6b83632b6b2b73a32b960711b606082015260800190565b8181038181111561028157610281611214565b6001600160a01b038581168252841660208201526040810183905260806060820181905260009061139690830184610f84565b9695505050505050565b6000602082840312156113b257600080fd5b815161067d81610f2d56fea264697066735822122095005ea830eb9bef7eef0c21700b1b6882d9f61795fcad31ed6b040b2b56a8fb64736f6c63430008110033",
    "linkReferences": {}
  },
  "methodIdentifiers": {
    "approve(address,uint256)": "095ea7b3",
    "balanceOf(address)": "70a08231",
    "getApproved(uint256)": "081812fc",
    "getTokenCounter()": "6e02007d",
    "isApprovedForAll(address,address)": "e985e9c5",
    "mintNFT()": "14f710fe",
    "name()": "06fdde03",
    "ownerOf(uint256)": "6352211e",
    "safeTransferFrom(address,address,uint256)": "42842e0e",
    "safeTransferFrom(address,address,uint256,bytes)": "b88d4fde",
    "setApprovalForAll(address,bool)": "a22cb465",
    "supportsInterface(bytes4)": "01ffc9a7",
    "symbol()": "95d89b41",
    "tokenURI(uint256)": "c87b56dd",
    "transferFrom(address,address,uint256)": "23b872dd"
  },
  "id": 19
}