{
  "abi": [
    {
      "inputs": [],
      "stateMutability": "nonpayable",
      "type": "constructor"
    },
    {
      "anonymous": false,
      "inputs": [
        {
          "indexed": false,
          "internalType": "uint256",
          "name": "",
          "type": "uint256"
        }
      ],
      "name": "NewTotalSupply",
      "type": "event"
    },
    {
      "anonymous": false,
      "inputs": [
        {
          "indexed": true,
          "internalType": "address",
          "name": "previousOwner",
          "type": "address"
        },
        {
          "indexed": true,
          "internalType": "address",
          "name": "newOwner",
          "type": "address"
        }
      ],
      "name": "OwnershipTransferred",
      "type": "event"
    },
    {
      "anonymous": false,
      "inputs": [
        {
          "indexed": false,
          "internalType": "uint256",
          "name": "",
          "type": "uint256"
        },
        {
          "indexed": false,
          "internalType": "address",
          "name": "",
          "type": "address"
        },
        {
          "indexed": false,
          "internalType": "address",
          "name": "",
          "type": "address"
        }
      ],
      "name": "Transaction",
      "type": "event"
    },
    {
      "inputs": [],
      "name": "addSupply",
      "outputs": [],
      "stateMutability": "nonpayable",
      "type": "function"
    },
    {
      "inputs": [
        {
          "internalType": "address",
          "name": "",
          "type": "address"
        }
      ],
      "name": "balance",
      "outputs": [
        {
          "internalType": "uint256",
          "name": "",
          "type": "uint256"
        }
      ],
      "stateMutability": "view",
      "type": "function"
    },
    {
      "inputs": [
        {
          "internalType": "address",
          "name": "user",
          "type": "address"
        }
      ],
      "name": "getBalance",
      "outputs": [
        {
          "internalType": "uint256",
          "name": "",
          "type": "uint256"
        }
      ],
      "stateMutability": "view",
      "type": "function"
    },
    {
      "inputs": [
        {
          "internalType": "address",
          "name": "user",
          "type": "address"
        }
      ],
      "name": "getPaymentRecords",
      "outputs": [
        {
          "components": [
            {
              "internalType": "address",
              "name": "addr",
              "type": "address"
            },
            {
              "internalType": "uint256",
              "name": "amount",
              "type": "uint256"
            }
          ],
          "internalType": "struct VolcanoCoin.Payment[]",
          "name": "",
          "type": "tuple[]"
        }
      ],
      "stateMutability": "view",
      "type": "function"
    },
    {
      "inputs": [],
      "name": "getSupply",
      "outputs": [
        {
          "internalType": "uint256",
          "name": "",
          "type": "uint256"
        }
      ],
      "stateMutability": "view",
      "type": "function"
    },
    {
      "inputs": [
        {
          "internalType": "address",
          "name": "",
          "type": "address"
        },
        {
          "internalType": "uint256",
          "name": "",
          "type": "uint256"
        }
      ],
      "name": "ledger",
      "outputs": [
        {
          "internalType": "address",
          "name": "addr",
          "type": "address"
        },
        {
          "internalType": "uint256",
          "name": "amount",
          "type": "uint256"
        }
      ],
      "stateMutability": "view",
      "type": "function"
    },
    {
      "inputs": [],
      "name": "owner",
      "outputs": [
        {
          "internalType": "address",
          "name": "",
          "type": "address"
        }
      ],
      "stateMutability": "view",
      "type": "function"
    },
    {
      "inputs": [
        {
          "internalType": "address",
          "name": "sender",
          "type": "address"
        },
        {
          "internalType": "address",
          "name": "recipient",
          "type": "address"
        },
        {
          "internalType": "uint256",
          "name": "amount",
          "type": "uint256"
        }
      ],
      "name": "recordPayment",
      "outputs": [],
      "stateMutability": "nonpayable",
      "type": "function"
    },
    {
      "inputs": [],
      "name": "renounceOwnership",
      "outputs": [],
      "stateMutability": "nonpayable",
      "type": "function"
    },
    {
      "inputs": [],
      "name": "totalSupply",
      "outputs": [
        {
          "internalType": "uint256",
          "name": "",
          "type": "uint256"
        }
      ],
      "stateMutability": "view",
      "type": "function"
    },
    {
      "inputs": [
        {
          "internalType": "uint256",
          "name": "amount",
          "type": "uint256"
        },
        {
          "internalType": "address",
          "name": "recipient",
          "type": "address"
        }
      ],
      "name": "transfer",
      "outputs": [],
      "stateMutability": "nonpayable",
      "type": "function"
    },
    {
      "inputs": [
        {
          "internalType": "address",
          "name": "newOwner",
          "type": "address"
        }
      ],
      "name": "transferOwnership",
      "outputs": [],
      "stateMutability": "nonpayable",
      "type": "function"
    }
  ],
  "bytecode": {
    "object": "0x608060405234801561001057600080fd5b5061001a33610057565b6127106001819055600260006100386000546001600160a01b031690565b6001600160a01b031681526020810191909152604001600020556100a7565b600080546001600160a01b038381166001600160a01b0319831681178455604051919092169283917f8be0079c531659141344cd1fd0a4f28419497f9722a3daafe3b4186f6b6457e09190a35050565b610757806100b66000396000f3fe608060405234801561001057600080fd5b50600436106100b45760003560e01c8063b7760c8f11610071578063b7760c8f14610147578063c92f14261461015a578063e3d670d71461017a578063f2fde38b1461019a578063f82923da146101ad578063f8b2cb4f146101b557600080fd5b806318160ddd146100b95780634e6ebeb8146100d55780636c9c2faf146100ea578063715018a6146100f257806374f1ca3a146100fa5780638da5cb5b1461012c575b600080fd5b6100c260015481565b6040519081526020015b60405180910390f35b6100e86100e33660046105d3565b6101de565b005b6001546100c2565b6100e8610240565b61010d61010836600461060f565b610254565b604080516001600160a01b0390931683526020830191909152016100cc565b6000546040516001600160a01b0390911681526020016100cc565b6100e8610155366004610639565b61029a565b61016d610168366004610665565b6103b0565b6040516100cc9190610687565b6100c2610188366004610665565b60026020526000908152604090205481565b6100e86101a8366004610665565b61043b565b6100e86104b4565b6100c26101c3366004610665565b6001600160a01b031660009081526002602052604090205490565b6001600160a01b03928316600090815260036020908152604080832081518083019092529486168152808201938452845460018082018755958452919092209151600290910290910180546001600160a01b0319169190941617835551910155565b61024861050d565b6102526000610567565b565b6003602052816000526040600020818154811061027057600080fd5b6000918252602090912060029091020180546001909101546001600160a01b039091169250905082565b336000908152600260205260409020548211156103085760405162461bcd60e51b815260206004820152602160248201527f496e73756666696369656e742062616c616e636520746f207472616e736665726044820152601760f91b60648201526084015b60405180910390fd5b6001600160a01b038116600090815260026020526040812080548492906103309084906106f5565b9091555050336000908152600260205260408120805484929061035490849061070e565b9091555061036590503382846101de565b604080518381523360208201526001600160a01b0383168183015290517fdc4fd0a2eee03907045c7f3a3b9b60216022ddc6f3bbd0f46e0aa18f432646909181900360600190a15050565b6001600160a01b0381166000908152600360209081526040808320805482518185028101850190935280835260609492939192909184015b82821015610430576000848152602090819020604080518082019091526002850290910180546001600160a01b031682526001908101548284015290835290920191016103e8565b505050509050919050565b61044361050d565b6001600160a01b0381166104a85760405162461bcd60e51b815260206004820152602660248201527f4f776e61626c653a206e6577206f776e657220697320746865207a65726f206160448201526564647265737360d01b60648201526084016102ff565b6104b181610567565b50565b6104bc61050d565b6103e8600160008282546104d091906106f5565b90915550506001546040519081527f5b1767df4e2cc8a7b2716959e609e0cdd987c9b88ac27b7fc4be99435aa1673b9060200160405180910390a1565b6000546001600160a01b031633146102525760405162461bcd60e51b815260206004820181905260248201527f4f776e61626c653a2063616c6c6572206973206e6f7420746865206f776e657260448201526064016102ff565b600080546001600160a01b038381166001600160a01b0319831681178455604051919092169283917f8be0079c531659141344cd1fd0a4f28419497f9722a3daafe3b4186f6b6457e09190a35050565b80356001600160a01b03811681146105ce57600080fd5b919050565b6000806000606084860312156105e857600080fd5b6105f1846105b7565b92506105ff602085016105b7565b9150604084013590509250925092565b6000806040838503121561062257600080fd5b61062b836105b7565b946020939093013593505050565b6000806040838503121561064c57600080fd5b8235915061065c602084016105b7565b90509250929050565b60006020828403121561067757600080fd5b610680826105b7565b9392505050565b602080825282518282018190526000919060409081850190868401855b828110156106d257815180516001600160a01b031685528601518685015292840192908501906001016106a4565b5091979650505050505050565b634e487b7160e01b600052601160045260246000fd5b80820180821115610708576107086106df565b92915050565b81810381811115610708576107086106df56fea2646970667358221220addf0e331ff460ecf271e9ffc1e843b470acaa361c4ed29c4c87af328919e40364736f6c63430008110033",
    "linkReferences": {}
  },
  "methodIdentifiers": {
    "addSupply()": "f82923da",
    "balance(address)": "e3d670d7",
    "getBalance(address)": "f8b2cb4f",
    "getPaymentRecords(address)": "c92f1426",
    "getSupply()": "6c9c2faf",
    "ledger(address,uint256)": "74f1ca3a",
    "owner()": "8da5cb5b",
    "recordPayment(address,address,uint256)": "4e6ebeb8",
    "renounceOwnership()": "715018a6",
    "totalSupply()": "18160ddd",
    "transfer(uint256,address)": "b7760c8f",
    "transferOwnership(address)": "f2fde38b"
  },
  "id": 9
}